{
  "contracts/compound/Governance/GovernorBravoInterfaces.sol": {
    "GovernorBravoDelegateStorageV1": {
      "abi": [
        {
          "constant": true,
          "inputs": [],
          "name": "admin",
          "outputs": [
            {
              "internalType": "address",
              "name": "",
              "type": "address"
            }
          ],
          "payable": false,
          "stateMutability": "view",
          "type": "function"
        },
        {
          "constant": true,
          "inputs": [],
          "name": "comp",
          "outputs": [
            {
              "internalType": "contract CompInterface",
              "name": "",
              "type": "address"
            }
          ],
          "payable": false,
          "stateMutability": "view",
          "type": "function"
        },
        {
          "constant": true,
          "inputs": [],
          "name": "implementation",
          "outputs": [
            {
              "internalType": "address",
              "name": "",
              "type": "address"
            }
          ],
          "payable": false,
          "stateMutability": "view",
          "type": "function"
        },
        {
          "constant": true,
          "inputs": [],
          "name": "initialProposalId",
          "outputs": [
            {
              "internalType": "uint256",
              "name": "",
              "type": "uint256"
            }
          ],
          "payable": false,
          "stateMutability": "view",
          "type": "function"
        },
        {
          "constant": true,
          "inputs": [
            {
              "internalType": "address",
              "name": "",
              "type": "address"
            }
          ],
          "name": "latestProposalIds",
          "outputs": [
            {
              "internalType": "uint256",
              "name": "",
              "type": "uint256"
            }
          ],
          "payable": false,
          "stateMutability": "view",
          "type": "function"
        },
        {
          "constant": true,
          "inputs": [],
          "name": "pendingAdmin",
          "outputs": [
            {
              "internalType": "address",
              "name": "",
              "type": "address"
            }
          ],
          "payable": false,
          "stateMutability": "view",
          "type": "function"
        },
        {
          "constant": true,
          "inputs": [],
          "name": "proposalCount",
          "outputs": [
            {
              "internalType": "uint256",
              "name": "",
              "type": "uint256"
            }
          ],
          "payable": false,
          "stateMutability": "view",
          "type": "function"
        },
        {
          "constant": true,
          "inputs": [],
          "name": "proposalThreshold",
          "outputs": [
            {
              "internalType": "uint256",
              "name": "",
              "type": "uint256"
            }
          ],
          "payable": false,
          "stateMutability": "view",
          "type": "function"
        },
        {
          "constant": true,
          "inputs": [
            {
              "internalType": "uint256",
              "name": "",
              "type": "uint256"
            }
          ],
          "name": "proposals",
          "outputs": [
            {
              "internalType": "uint256",
              "name": "id",
              "type": "uint256"
            },
            {
              "internalType": "address",
              "name": "proposer",
              "type": "address"
            },
            {
              "internalType": "uint256",
              "name": "eta",
              "type": "uint256"
            },
            {
              "internalType": "uint256",
              "name": "startBlock",
              "type": "uint256"
            },
            {
              "internalType": "uint256",
              "name": "endBlock",
              "type": "uint256"
            },
            {
              "internalType": "uint256",
              "name": "forVotes",
              "type": "uint256"
            },
            {
              "internalType": "uint256",
              "name": "againstVotes",
              "type": "uint256"
            },
            {
              "internalType": "uint256",
              "name": "abstainVotes",
              "type": "uint256"
            },
            {
              "internalType": "bool",
              "name": "canceled",
              "type": "bool"
            },
            {
              "internalType": "bool",
              "name": "executed",
              "type": "bool"
            }
          ],
          "payable": false,
          "stateMutability": "view",
          "type": "function"
        },
        {
          "constant": true,
          "inputs": [],
          "name": "timelock",
          "outputs": [
            {
              "internalType": "contract TimelockInterface",
              "name": "",
              "type": "address"
            }
          ],
          "payable": false,
          "stateMutability": "view",
          "type": "function"
        },
        {
          "constant": true,
          "inputs": [],
          "name": "votingDelay",
          "outputs": [
            {
              "internalType": "uint256",
              "name": "",
              "type": "uint256"
            }
          ],
          "payable": false,
          "stateMutability": "view",
          "type": "function"
        },
        {
          "constant": true,
          "inputs": [],
          "name": "votingPeriod",
          "outputs": [
            {
              "internalType": "uint256",
              "name": "",
              "type": "uint256"
            }
          ],
          "payable": false,
          "stateMutability": "view",
          "type": "function"
        }
      ],
      "evm": {
        "bytecode": {
          "linkReferences": {},
          "object": "608060405234801561001057600080fd5b50610429806100206000396000f3fe608060405234801561001057600080fd5b50600436106100b45760003560e01c80635c60da1b116100715780635c60da1b14610145578063b58131b01461014d578063d33219b414610155578063da35c6641461015d578063f851a44014610165578063fc4eee421461016d576100b4565b8063013cf08b146100b957806302a251a3146100eb578063109d0af81461010057806317977c611461011557806326782247146101285780633932abb11461013d575b600080fd5b6100cc6100c7366004610295565b610175565b6040516100e29a99989796959493929190610307565b60405180910390f35b6100f36101d8565b6040516100e291906102f9565b6101086101de565b6040516100e291906102eb565b6100f361012336600461026f565b6101ed565b6101306101ff565b6040516100e291906102dd565b6100f361020e565b610130610214565b6100f3610223565b610108610229565b6100f3610238565b61013061023e565b6100f361024d565b600a60208190526000918252604090912080546001820154600283015460078401546008850154600986015496860154600b870154600c9097015495976001600160a01b0390951696939592949193919290919060ff808216916101009004168a565b60045481565b6009546001600160a01b031681565b600b6020526000908152604090205481565b6001546001600160a01b031681565b60035481565b6002546001600160a01b031681565b60055481565b6008546001600160a01b031681565b60075481565b6000546001600160a01b031681565b60065481565b803561025e816103c6565b92915050565b803561025e816103dd565b60006020828403121561028157600080fd5b600061028d8484610253565b949350505050565b6000602082840312156102a757600080fd5b600061028d8484610264565b6102bc8161039c565b82525050565b6102bc816103a7565b6102bc816103bb565b6102bc816103b8565b6020810161025e82846102b3565b6020810161025e82846102cb565b6020810161025e82846102d4565b6101408101610316828d6102d4565b610323602083018c6102b3565b610330604083018b6102d4565b61033d606083018a6102d4565b61034a60808301896102d4565b61035760a08301886102d4565b61036460c08301876102d4565b61037160e08301866102d4565b61037f6101008301856102c2565b61038d6101208301846102c2565b9b9a5050505050505050505050565b600061025e826103ac565b151590565b6001600160a01b031690565b90565b600061025e8261039c565b6103cf8161039c565b81146103da57600080fd5b50565b6103cf816103b856fea365627a7a723158208884757b224f48039ea9bdc506b8fc1cfb1f129a989121e5ffc92139c1c22df76c6578706572696d656e74616cf564736f6c63430005100040",
          "opcodes": "PUSH1 0x80 PUSH1 0x40 MSTORE CALLVALUE DUP1 ISZERO PUSH2 0x10 JUMPI PUSH1 0x0 DUP1 REVERT JUMPDEST POP PUSH2 0x429 DUP1 PUSH2 0x20 PUSH1 0x0 CODECOPY PUSH1 0x0 RETURN INVALID PUSH1 0x80 PUSH1 0x40 MSTORE CALLVALUE DUP1 ISZERO PUSH2 0x10 JUMPI PUSH1 0x0 DUP1 REVERT JUMPDEST POP PUSH1 0x4 CALLDATASIZE LT PUSH2 0xB4 JUMPI PUSH1 0x0 CALLDATALOAD PUSH1 0xE0 SHR DUP1 PUSH4 0x5C60DA1B GT PUSH2 0x71 JUMPI DUP1 PUSH4 0x5C60DA1B EQ PUSH2 0x145 JUMPI DUP1 PUSH4 0xB58131B0 EQ PUSH2 0x14D JUMPI DUP1 PUSH4 0xD33219B4 EQ PUSH2 0x155 JUMPI DUP1 PUSH4 0xDA35C664 EQ PUSH2 0x15D JUMPI DUP1 PUSH4 0xF851A440 EQ PUSH2 0x165 JUMPI DUP1 PUSH4 0xFC4EEE42 EQ PUSH2 0x16D JUMPI PUSH2 0xB4 JUMP JUMPDEST DUP1 PUSH4 0x13CF08B EQ PUSH2 0xB9 JUMPI DUP1 PUSH4 0x2A251A3 EQ PUSH2 0xEB JUMPI DUP1 PUSH4 0x109D0AF8 EQ PUSH2 0x100 JUMPI DUP1 PUSH4 0x17977C61 EQ PUSH2 0x115 JUMPI DUP1 PUSH4 0x26782247 EQ PUSH2 0x128 JUMPI DUP1 PUSH4 0x3932ABB1 EQ PUSH2 0x13D JUMPI JUMPDEST PUSH1 0x0 DUP1 REVERT JUMPDEST PUSH2 0xCC PUSH2 0xC7 CALLDATASIZE PUSH1 0x4 PUSH2 0x295 JUMP JUMPDEST PUSH2 0x175 JUMP JUMPDEST PUSH1 0x40 MLOAD PUSH2 0xE2 SWAP11 SWAP10 SWAP9 SWAP8 SWAP7 SWAP6 SWAP5 SWAP4 SWAP3 SWAP2 SWAP1 PUSH2 0x307 JUMP JUMPDEST PUSH1 0x40 MLOAD DUP1 SWAP2 SUB SWAP1 RETURN JUMPDEST PUSH2 0xF3 PUSH2 0x1D8 JUMP JUMPDEST PUSH1 0x40 MLOAD PUSH2 0xE2 SWAP2 SWAP1 PUSH2 0x2F9 JUMP JUMPDEST PUSH2 0x108 PUSH2 0x1DE JUMP JUMPDEST PUSH1 0x40 MLOAD PUSH2 0xE2 SWAP2 SWAP1 PUSH2 0x2EB JUMP JUMPDEST PUSH2 0xF3 PUSH2 0x123 CALLDATASIZE PUSH1 0x4 PUSH2 0x26F JUMP JUMPDEST PUSH2 0x1ED JUMP JUMPDEST PUSH2 0x130 PUSH2 0x1FF JUMP JUMPDEST PUSH1 0x40 MLOAD PUSH2 0xE2 SWAP2 SWAP1 PUSH2 0x2DD JUMP JUMPDEST PUSH2 0xF3 PUSH2 0x20E JUMP JUMPDEST PUSH2 0x130 PUSH2 0x214 JUMP JUMPDEST PUSH2 0xF3 PUSH2 0x223 JUMP JUMPDEST PUSH2 0x108 PUSH2 0x229 JUMP JUMPDEST PUSH2 0xF3 PUSH2 0x238 JUMP JUMPDEST PUSH2 0x130 PUSH2 0x23E JUMP JUMPDEST PUSH2 0xF3 PUSH2 0x24D JUMP JUMPDEST PUSH1 0xA PUSH1 0x20 DUP2 SWAP1 MSTORE PUSH1 0x0 SWAP2 DUP3 MSTORE PUSH1 0x40 SWAP1 SWAP2 KECCAK256 DUP1 SLOAD PUSH1 0x1 DUP3 ADD SLOAD PUSH1 0x2 DUP4 ADD SLOAD PUSH1 0x7 DUP5 ADD SLOAD PUSH1 0x8 DUP6 ADD SLOAD PUSH1 0x9 DUP7 ADD SLOAD SWAP7 DUP7 ADD SLOAD PUSH1 0xB DUP8 ADD SLOAD PUSH1 0xC SWAP1 SWAP8 ADD SLOAD SWAP6 SWAP8 PUSH1 0x1 PUSH1 0x1 PUSH1 0xA0 SHL SUB SWAP1 SWAP6 AND SWAP7 SWAP4 SWAP6 SWAP3 SWAP5 SWAP2 SWAP4 SWAP2 SWAP3 SWAP1 SWAP2 SWAP1 PUSH1 0xFF DUP1 DUP3 AND SWAP2 PUSH2 0x100 SWAP1 DIV AND DUP11 JUMP JUMPDEST PUSH1 0x4 SLOAD DUP2 JUMP JUMPDEST PUSH1 0x9 SLOAD PUSH1 0x1 PUSH1 0x1 PUSH1 0xA0 SHL SUB AND DUP2 JUMP JUMPDEST PUSH1 0xB PUSH1 0x20 MSTORE PUSH1 0x0 SWAP1 DUP2 MSTORE PUSH1 0x40 SWAP1 KECCAK256 SLOAD DUP2 JUMP JUMPDEST PUSH1 0x1 SLOAD PUSH1 0x1 PUSH1 0x1 PUSH1 0xA0 SHL SUB AND DUP2 JUMP JUMPDEST PUSH1 0x3 SLOAD DUP2 JUMP JUMPDEST PUSH1 0x2 SLOAD PUSH1 0x1 PUSH1 0x1 PUSH1 0xA0 SHL SUB AND DUP2 JUMP JUMPDEST PUSH1 0x5 SLOAD DUP2 JUMP JUMPDEST PUSH1 0x8 SLOAD PUSH1 0x1 PUSH1 0x1 PUSH1 0xA0 SHL SUB AND DUP2 JUMP JUMPDEST PUSH1 0x7 SLOAD DUP2 JUMP JUMPDEST PUSH1 0x0 SLOAD PUSH1 0x1 PUSH1 0x1 PUSH1 0xA0 SHL SUB AND DUP2 JUMP JUMPDEST PUSH1 0x6 SLOAD DUP2 JUMP JUMPDEST DUP1 CALLDATALOAD PUSH2 0x25E DUP2 PUSH2 0x3C6 JUMP JUMPDEST SWAP3 SWAP2 POP POP JUMP JUMPDEST DUP1 CALLDATALOAD PUSH2 0x25E DUP2 PUSH2 0x3DD JUMP JUMPDEST PUSH1 0x0 PUSH1 0x20 DUP3 DUP5 SUB SLT ISZERO PUSH2 0x281 JUMPI PUSH1 0x0 DUP1 REVERT JUMPDEST PUSH1 0x0 PUSH2 0x28D DUP5 DUP5 PUSH2 0x253 JUMP JUMPDEST SWAP5 SWAP4 POP POP POP POP JUMP JUMPDEST PUSH1 0x0 PUSH1 0x20 DUP3 DUP5 SUB SLT ISZERO PUSH2 0x2A7 JUMPI PUSH1 0x0 DUP1 REVERT JUMPDEST PUSH1 0x0 PUSH2 0x28D DUP5 DUP5 PUSH2 0x264 JUMP JUMPDEST PUSH2 0x2BC DUP2 PUSH2 0x39C JUMP JUMPDEST DUP3 MSTORE POP POP JUMP JUMPDEST PUSH2 0x2BC DUP2 PUSH2 0x3A7 JUMP JUMPDEST PUSH2 0x2BC DUP2 PUSH2 0x3BB JUMP JUMPDEST PUSH2 0x2BC DUP2 PUSH2 0x3B8 JUMP JUMPDEST PUSH1 0x20 DUP2 ADD PUSH2 0x25E DUP3 DUP5 PUSH2 0x2B3 JUMP JUMPDEST PUSH1 0x20 DUP2 ADD PUSH2 0x25E DUP3 DUP5 PUSH2 0x2CB JUMP JUMPDEST PUSH1 0x20 DUP2 ADD PUSH2 0x25E DUP3 DUP5 PUSH2 0x2D4 JUMP JUMPDEST PUSH2 0x140 DUP2 ADD PUSH2 0x316 DUP3 DUP14 PUSH2 0x2D4 JUMP JUMPDEST PUSH2 0x323 PUSH1 0x20 DUP4 ADD DUP13 PUSH2 0x2B3 JUMP JUMPDEST PUSH2 0x330 PUSH1 0x40 DUP4 ADD DUP12 PUSH2 0x2D4 JUMP JUMPDEST PUSH2 0x33D PUSH1 0x60 DUP4 ADD DUP11 PUSH2 0x2D4 JUMP JUMPDEST PUSH2 0x34A PUSH1 0x80 DUP4 ADD DUP10 PUSH2 0x2D4 JUMP JUMPDEST PUSH2 0x357 PUSH1 0xA0 DUP4 ADD DUP9 PUSH2 0x2D4 JUMP JUMPDEST PUSH2 0x364 PUSH1 0xC0 DUP4 ADD DUP8 PUSH2 0x2D4 JUMP JUMPDEST PUSH2 0x371 PUSH1 0xE0 DUP4 ADD DUP7 PUSH2 0x2D4 JUMP JUMPDEST PUSH2 0x37F PUSH2 0x100 DUP4 ADD DUP6 PUSH2 0x2C2 JUMP JUMPDEST PUSH2 0x38D PUSH2 0x120 DUP4 ADD DUP5 PUSH2 0x2C2 JUMP JUMPDEST SWAP12 SWAP11 POP POP POP POP POP POP POP POP POP POP POP JUMP JUMPDEST PUSH1 0x0 PUSH2 0x25E DUP3 PUSH2 0x3AC JUMP JUMPDEST ISZERO ISZERO SWAP1 JUMP JUMPDEST PUSH1 0x1 PUSH1 0x1 PUSH1 0xA0 SHL SUB AND SWAP1 JUMP JUMPDEST SWAP1 JUMP JUMPDEST PUSH1 0x0 PUSH2 0x25E DUP3 PUSH2 0x39C JUMP JUMPDEST PUSH2 0x3CF DUP2 PUSH2 0x39C JUMP JUMPDEST DUP2 EQ PUSH2 0x3DA JUMPI PUSH1 0x0 DUP1 REVERT JUMPDEST POP JUMP JUMPDEST PUSH2 0x3CF DUP2 PUSH2 0x3B8 JUMP INVALID LOG3 PUSH6 0x627A7A723158 KECCAK256 DUP9 DUP5 PUSH22 0x7B224F48039EA9BDC506B8FC1CFB1F129A989121E5FF 0xC9 0x21 CODECOPY 0xC1 0xC2 0x2D 0xF7 PUSH13 0x6578706572696D656E74616CF5 PUSH5 0x736F6C6343 STOP SDIV LT STOP BLOCKHASH "
        },
        "methodIdentifiers": {
          "admin()": "f851a440",
          "comp()": "109d0af8",
          "implementation()": "5c60da1b",
          "initialProposalId()": "fc4eee42",
          "latestProposalIds(address)": "17977c61",
          "pendingAdmin()": "26782247",
          "proposalCount()": "da35c664",
          "proposalThreshold()": "b58131b0",
          "proposals(uint256)": "013cf08b",
          "timelock()": "d33219b4",
          "votingDelay()": "3932abb1",
          "votingPeriod()": "02a251a3"
        }
      }
    }
  }
}